:020000040800F2
:1000000020E90020D5030008816F0008BD580008D2
:10001000A96D00086D380008CDBC00080000000084
:1000200000000000000000000000000015030008B0
:100030006D4B000800000000710300089992000851
:1000400065BF0008EF030008EF03000841770008D0
:10005000EF030008EF030008EF030008EF030008B8
:10006000EF030008EF030008EF030008EF030008A8
:10007000EF030008EF030008E13A0008193B00080D
:10008000513B0008893B0008EF030008EF0300081C
:10009000EF030008EF030008EF030008EF03000878
:1000A000EF030008EF030008EF030008EF03000868
:1000B000EF030008EF030008EF030008EF03000858
:1000C000EF030008EF030008EF030008EF03000848
:1000D000EF03000869AB0008F9AB0008A9AC000801
:1000E000EF030008FD750008EF030008EF030008A8
:1000F000EF030008EF030008EF030008EF03000818
:10010000EF030008CD7A000885930008EF0300088C
:10011000EF030008EF030008EF030008EF030008F7
:10012000EF030008EF030008EF030008EF030008E7
:10013000EF030008EF030008EF030008EF030008D7
:10014000EF030008EF030008EF030008EF030008C7
:10015000EF030008EF030008EF030008EF030008B7
:10016000EF030008EF030008EF030008EF030008A7
:10017000EF030008EF030008EF030008EF03000897
:10018000EF030008EF03000800F002F800F0B2F8F7
:100190000AA090E8000C82448344AAF10107DA45E2
:1001A00001D100F0A7F8AFF2090EBAE80F0013F082
:1001B000010F18BFFB1A43F001031847F4DA0400DB
:1001C00014DB04000A444FF0000C10F8013B13F05C
:1001D000070408BF10F8014B1D1108BF10F8015BA0
:1001E000641E05D010F8016B641E01F8016BF9D193
:1001F00013F0080F1EBF10F8014BAD1C0C1B09D1EA
:100200006D1E58BF01F801CBFAD505E014F8016B5B
:1002100001F8016B6D1EF9D59142D6D370470000ED
:100220000023002400250026103A28BF78C1FBD8FF
:10023000520728BF30C148BF0B6070476E2901F0DC
:100240008987702901F00384662916F0FD836529EA
:1002500016F0FA83672916F0F783612916F0F68302
:1002600003681B0A28BF41F08001692901F0368329
:10027000642901F03383752901F030836F2902F07E
:100280004A80782901F0CF83E92901F06383E429CA
:1002900001F06083F52901F05D83EF2902F04780CA
:1002A000F82901F0CE830368DB0928BF41F0800103
:1002B000632901F09287732901F09787E32902F0FF
:1002C0008D84F32902F09284002070471FB516F048
:1002D000B6FB02F027FD04000020002116F00CFB05
:1002E000401C60600020002116F01CFBE0601FBD78
:1002F00010B510BD02F0F1FC1146FFF7E7FF0FF05B
:1003000063FC02F0D3FD03B4FFF7F2FF03BC0CF073
:1003100070F800002C4B19680868B0E8F04F80F3C3
:100320000988BFF36F8F4FF0000080F3118870478A
:100330000000000008480068006880F308884FF05B
:10034000000080F3148862B661B6BFF34F8FBFF32D
:100350006F8F00DF00BF00BF08ED00E0DFF80C008A
:10036000016841F470010160704700BF88ED00E052
:10037000EFF30980BFF36F8F134B1A681EF0100F55
:1003800008BF20ED108A20E9F04F106009B44FF04B
:10039000500080F31188BFF34F8FBFF36F8F13F0BE
:1003A00061FC4FF0000080F3118809BC19680868EF
:1003B000B0E8F04F1EF0100F08BFB0EC108A80F3C9
:1003C0000988BFF36F8F704754010020EFF3058059
:1003D000704700000948804709480047FEE7FEE7EC
:1003E000FEE7FEE7FEE7FEE7FEE7FEE7FEE7FEE7E5
:1003F00004480549034A054B70470000C5920008B0
:100400008901000820E1002020E9002020E10020EF
:1004100081FB0020704701464FF0000081EAE17047
:10042000A0EBE170704700002DE9F04F82B0019021
:100430004FF000744FF000784FF000054FF00009C6
:1004400052F804CB52F804EB0868CB6DC0FB0C45A6
:10045000D1F88000CEF1000EC3FB0E45D1F8DC30A0
:10046000C0FB0C89C3FB0E8952F804CB52F804EB95
:1004700048688B6DC0FB0C45D1F88400CEF1000EAE
:10048000C3FB0E45D1F8D830C0FB0C89C3FB0E89E5
:1004900052F804CB52F804EB88684B6DC0FB0C4556
:1004A000D1F88800CEF1000EC3FB0E45D1F8D43050
:1004B000C0FB0C89C3FB0E8952F804CB52F804EB45
:1004C000C8680B6DC0FB0C45D1F88C00CEF1000E56
:1004D000C3FB0E45D1F8D030C0FB0C89C3FB0E899D
:1004E00052F804CB52F804EB0869CB6CC0FB0C4506
:1004F000D1F89000CEF1000EC3FB0E45D1F8CC3000
:10050000C0FB0C89C3FB0E8952F804CB52F804EBF4
:1005100048698B6CC0FB0C45D1F89400CEF1000EFD
:10052000C3FB0E45D1F8C830C0FB0C89C3FB0E8954
:1005300052F804CB52F804EB88694B6CC0FB0C45B5
:10054000D1F89800CEF1000EC3FB0E45D1F8C430AF
:10055000C0FB0C89C3FB0E8952F804CB52F804EBA4
:10056000C8690B6CC0FB0C45D1F89C00CEF1000EA5
:10057000C3FB0E45D1F8C030C0FB0C89C3FB0E890C
:1005800001984FF4FE4E4EF0FF0E4FEA946444EA99
:1005900085144FEAE47CBCEBE43F18BF8CEA0E0400
:1005A0004FEA986848EA89184FEAE87CBCEBE83FD4
:1005B00018BF8CEA0E080480A0F8028002F5707261
:1005C00001F580514FF000744FF000784FF00005B6
:1005D0004FF0000952F804CB0868D1F88030C0FB16
:1005E0000C45C3FB0C8952F804CB4868D1F8843021
:1005F000C0FB0C45C3FB0C8952F804CB8868D1F8CA
:100600008830C0FB0C45C3FB0C8952F804CBC8688A
:10061000D1F88C30C0FB0C45C3FB0C8952F804CBDD
:100620000869D1F89030C0FB0C45C3FB0C8952F827
:1006300004CB4869D1F89430C0FB0C45C3FB0C894E
:1006400052F804CB8869D1F89830C0FB0C45C3FB45
:100650000C8952F804CBC869D1F89C30C0FB0C451A
:10066000C3FB0C8901984FF4FE4E4EF0FF0E4FEA8B
:10067000946444EA85144FEAE47CBCEBE43F18BF81
:100680008CEA0E044FEA986848EA89184FEAE87C39
:10069000BCEBE83F18BF8CEA0E08A0F84040A0F879
:1006A0004280A2F57872A1F570614FF00F0C00F155
:1006B0000400CDF800C001904FF000744FF00078B6
:1006C0004FF000764FF0007A4FF000054FF0000930
:1006D0004FF000074FF0000B52F804CB52F804EB38
:1006E0000868CB6DC0FB0C45C0FB0E67CEF1000E59
:1006F000C3FB0C67C3FB0E45D1F8DC30D1F880009A
:10070000C3FB0E89C3FB0CABCEF1000EC0FB0C8902
:10071000C0FB0EAB52F804CB52F804EB48688B6D6B
:10072000C0FB0C45C0FB0E67CEF1000EC3FB0C678F
:10073000C3FB0E45D1F8D830D1F88400C3FB0E8935
:10074000C3FB0CABCEF1000EC0FB0C89C0FB0EABA3
:1007500052F804CB52F804EB88684B6DC0FB0C4593
:10076000C0FB0E67CEF1000EC3FB0C67C3FB0E454A
:10077000D1F8D430D1F88800C3FB0E89C3FB0CAB91
:10078000CEF1000EC0FB0C89C0FB0EAB52F804CBBF
:1007900052F804EBC8680B6DC0FB0C45C0FB0E673C
:1007A000CEF1000EC3FB0C67C3FB0E45D1F8D03071
:1007B000D1F88C00C3FB0E89C3FB0CABCEF1000E4D
:1007C000C0FB0C89C0FB0EAB52F804CB52F804EB13
:1007D0000869CB6CC0FB0C45C0FB0E67CEF1000E68
:1007E000C3FB0C67C3FB0E45D1F8CC30D1F89000A9
:1007F000C3FB0E89C3FB0CABCEF1000EC0FB0C8912
:10080000C0FB0EAB52F804CB52F804EB48698B6C7A
:10081000C0FB0C45C0FB0E67CEF1000EC3FB0C679E
:10082000C3FB0E45D1F8C830D1F89400C3FB0E8944
:10083000C3FB0CABCEF1000EC0FB0C89C0FB0EABB2
:1008400052F804CB52F804EB88694B6CC0FB0C45A2
:10085000C0FB0E67CEF1000EC3FB0C67C3FB0E4559
:10086000D1F8C430D1F89800C3FB0E89C3FB0CABA0
:10087000CEF1000EC0FB0C89C0FB0EAB52F804CBCE
:1008800052F804EBC8690B6CC0FB0C45C0FB0E674B
:10089000CEF1000EC3FB0C67C3FB0E45D1F8C03090
:1008A000D1F89C00C3FB0E89C3FB0CABCEF1000E4C
:1008B000C0FB0C89C0FB0EAB01F5807101984FF4B1
:1008C000FE4E4EF0FF0E4FEA946444EA85144FEA60
:1008D000E47CBCEBE43F18BF8CEA0E044FEA986856
:1008E00048EA89184FEAE87CBCEBE83F18BF8CEA7D
:1008F0000E084FEA966646EA87164FEAE67CBCEB9E
:10090000E63F18BF8CEA0E064FEA9A6A4AEA8B1A4B
:100910004FEAEA7CBCEBEA3F18BF8CEA0E0ADDF82E
:1009200000C000EBCC0E2EF8026B2EF802AB20F8C4
:10093000024B20F8028BBCF1010C7FF4BAAE02B07E
:10094000BDE8F08F2DE9F04F82B001904FF00074B8
:100950004FF0000552F804CB52F804EB0868CB6D59
:10096000CEF1000EC0FB0C45C3FB0E4552F804CB84
:1009700052F804EB48688B6DCEF1000EC0FB0C45BD
:10098000C3FB0E4552F804CB52F804EB88684B6D5C
:10099000CEF1000EC0FB0C45C3FB0E4552F804CB54
:1009A00052F804EBC8680B6DCEF1000EC0FB0C458D
:1009B000C3FB0E4552F804CB52F804EB0869CB6C2C
:1009C000CEF1000EC0FB0C45C3FB0E4552F804CB24
:1009D00052F804EB48698B6CCEF1000EC0FB0C455D
:1009E000C3FB0E4552F804CB52F804EB88694B6CFC
:1009F000CEF1000EC0FB0C45C3FB0E4552F804CBF4
:100A000052F804EBC8690B6CCEF1000EC0FB0C452C
:100A1000C3FB0E4501984FF4FE4E4EF0FF0E4FEA19
:100A2000946444EA85144FEAE47CBCEBE43F18BFCD
:100A30008CEA0E04048002F5707201F580514FF0CB
:100A400000744FF0000552F804CB0868C0FB0C4559
:100A500052F804CB4868C0FB0C4552F804CB8868B8
:100A6000C0FB0C4552F804CBC868C0FB0C4552F8DB
:100A700004CB0869C0FB0C4552F804CB4869C0FBA5
:100A80000C4552F804CB8869C0FB0C4552F804CBE6
:100A9000C869C0FB0C4501984FF4FE4E4EF0FF0EA6
:100AA0004FEA946444EA85144FEAE47CBCEBE43FEB
:100AB00018BF8CEA0E040484A2F57872A1F5706167
:100AC0004FF00F0C00F10200CDF800C001904FF084
:100AD00000744FF000764FF000054FF0000752F819
:100AE00004CB52F804EB0868CB6DC0FB0C45C0FB8F
:100AF0000E67CEF1000EC3FB0E45C3FB0C6752F828
:100B000004CB52F804EB48688B6DC0FB0C45C0FB6E
:100B10000E67CEF1000EC3FB0E45C3FB0C6752F807
:100B200004CB52F804EB88684B6DC0FB0C45C0FB4E
:100B30000E67CEF1000EC3FB0E45C3FB0C6752F8E7
:100B400004CB52F804EBC8680B6DC0FB0C45C0FB2E
:100B50000E67CEF1000EC3FB0E45C3FB0C6752F8C7
:100B600004CB52F804EB0869CB6CC0FB0C45C0FB0E
:100B70000E67CEF1000EC3FB0E45C3FB0C6752F8A7
:100B800004CB52F804EB48698B6CC0FB0C45C0FBEE
:100B90000E67CEF1000EC3FB0E45C3FB0C6752F887
:100BA00004CB52F804EB88694B6CC0FB0C45C0FBCE
:100BB0000E67CEF1000EC3FB0E45C3FB0C6752F867
:100BC00004CB52F804EBC8690B6CC0FB0C45C0FBAE
:100BD0000E67CEF1000EC3FB0E45C3FB0C6701F59B
:100BE000807101984FF4FE4E4EF0FF0E4FEA946470
:100BF00044EA85144FEAE47CBCEBE43F18BF8CEA7E
:100C00000E044FEA966646EA87164FEAE67CBCEB8E
:100C1000E63F18BF8CEA0E06DDF800C000EB8C0E34
:100C20002EF8026B20F8024BBCF1010C7FF44CAFA4
:100C300002B0BDE8F08F00009FED3A0A5FEA920C27
:100C400053D000BFF0EC010A0B1DB0EC011A60EEAE
:100C5000A00A41EE010AF5EEC00AF1EE10FAC6BF95
:100C6000B1EEE01A81ED001A81ED000AF0EC010A04
:100C7000191DB0EC011A60EEA00A41EE010AF5EE72
:100C8000C00AF1EE10FAC6BFB1EEE01A83ED001A09
:100C900083ED000AF0EC010A0B1DB0EC011A60EEC6
:100CA000A00A41EE010AF5EEC00AF1EE10FAC6BF45
:100CB000B1EEE01A81ED001A81ED000AF0EC010AB4
:100CC000191DB0EC011A60EEA00A41EE010AF5EE22
:100CD000C00AF1EE10FAC6BFB1EEE01A83ED001AB9
:100CE00083ED000ABCF1010CACD112F0030208BF85
:100CF000704700BFF0EC010A0B46B0EC011A091D69
:100D000060EEA00A41EE010AF5EEC00AF1EE10FA1B
:100D1000C6BFB1EEE01A83ED001A83ED000A521E41
:100D2000E8D17047000000002DE9F04F8D082DED4F
:100D3000048B82B00026AC463446019506EB0C09C4
:100D400009EB0C0A0AEB0C0800EBC60700EBC9091B
:100D500000EBCA0A00EBC80897ED003AD9ED003A5B
:100D6000DAED006A98ED006A97ED010ADAED014AC2
:100D700033EE265A73EE860A99ED014AD8ED015AF0
:100D800030EE241A4FEA440B02EBCB0E70EE644AAD
:100D900074EE251A35EE200A9EED002ADEED012ABA
:100DA00087ED000A31EE210A73EEC63A34EE656A29
:100DB00087ED010A35EE600A33EE663A71EE610A9C
:100DC00002EBC40774EEE35A33EE064A97ED005A7D
:100DD00073EEA41AD7ED014A33EE461A24EE056AE3
:100DE0000BEB040725EE855A02EBC70760EE026A9B
:100DF00065EEA45A24EE244A97ED003AD7ED013A65
:100E000060EEA24A20EE822A21EE037A20EE220A28
:100E100061EEA30A21EE833A61EE231A76EEA42A4C
:100E200032EE400A36EE251A75EE443AC9ED002A34
:100E300077EE200A89ED010A73EE611A8AED001A35
:100E4000CAED013AC8ED000A761CC8ED011A1C442F
:100E50006D1E7FF473AF4FF6FF7404EA830B019BA2
:100E60000093042B7DD966464FEA9C0C4FF0000896
:100E7000C146ACF1010E00BF4FEA480303EB080482
:100E800002EBC30302EBC80593ED003AD3ED014A30
:100E900002EBC40395ED005AD5ED015A93ED006ABB
:100EA00093ED014AD8444B4603EB0C0404EB0C07CA
:100EB00007EB0C0A00EBC30500EBC70700EBC4040B
:100EC00000EBCA0AD5ED003A97ED007AD4ED008A1E
:100ED0009AED008A95ED010AD4ED010AD7ED017A69
:100EE000DAED011A33EEC72A70EE676A70EEE12A76
:100EF00033EE877A78EE883A30EE270A38EEC81A51
:100F000070EEA11A72EE227A32EE622A77EE232A6E
:100F100070EE618A36EEC18A30EE210A77EE630AFE
:100F200031EE261AC5ED002A85ED010A28EE050AE4
:100F300067EE856A28EE258A20EE837A20EEA49A51
:100F400068EE831A62EE062A61EE063A62EE040A41
:100F500067EEA57A68EEA48A21EE041A36EE882A96
:100F600000E027E077EE286A71EEC91A30EE670AD2
:100F7000C4ED006A32EE811AC4ED011A73EEE00A84
:100F800087ED002A87ED010A8AED001A3344CAED85
:100F9000010A8B4288D309F10109F1457FF66CAF54
:100FA0004FF6FF7303EA8B0B009B9B080093042B07
:100FB0003FF659AFDDF8041090ED000AD0ED042A99
:100FC00090ED025A90ED031AD0ED064A90ED073AE3
:100FD00030EE222AD0ED011AD0ED050A75EE243A42
:100FE00031EE034A30EE620A71EEA02A31EE431A66
:100FF00032EE233A71EEE00A75EE641A72EE844A1C
:1010000032EE632A72EEC43A80ED003A70EE012AA5
:10101000C0ED014A30EEE14A80ED022A30EE410A8D
:10102000C0ED033A71EEA00AC0ED042A80ED054A36
:1010300080ED060AC0ED070A2030491EBCD102B07F
:10104000BDEC048BBDE8F08F2DE9F04F4FEA910A1B
:101050002DED048B82B00024D446A046CDF804A028
:1010600004EB0C0505EB0C0606EB0C0900EBC407C2
:1010700000EBC60600EBC50500EBC909D7ED011A68
:10108000D6ED012A95ED006AD9ED006AD7ED005A38
:1010900096ED007AD5ED010A99ED011A36EE262A71
:1010A00071EEA23A35EE873A71EEE21A30EE815ACD
:1010B00070EEC12A4FEA480B02EBCB0E73EE020A28
:1010C0009EED004ADEED014AC7ED000A73EE850A87
:1010D00036EE666A75EEC75AC7ED010A33EE422A4C
:1010E00002EBC80731EE861A33EEC53A71EEC61A26
:1010F00097ED006A97ED015A75EEE20A0BEB0807CF
:1011000002EBC70775EEA22AD7ED005AD7ED013AD8
:1011100060EE866A22EE047A62EEA57A23EE044A35
:1011200021EE066A61EEA55A60EE850A23EE243AA6
:1011300022EE242A21EE051A61EEA31A62EEA32AFA
:1011400076EE203A37EE433A74EE020A36EEC11AD2
:1011500085ED003A77EEE11AC5ED010A35EEA22AD7
:1011600086ED001AC6ED013AC9ED001A641C89ED3E
:10117000012A9844BAF1010A7FF472AF4FF6FF7466
:1011800004EA830B019B0093042B7CD966464FEA4B
:101190009C0C4FF00008C146ACF1010E4FEA480329
:1011A00003EB080402EBC30302EBC805D3ED003ADE
:1011B00093ED017A02EBC403D5ED006AD5ED015A37
:1011C000D3ED004A93ED013AD8444B4603EB0C04AF
:1011D00004EB0C0707EB0C0A00EBC30500EBC70799
:1011E00000EBC40400EBCA0A95ED012A97ED018AD1
:1011F00095ED001AD4ED008AD4ED017A97ED009AAE
:10120000DAED001ADAED010A32EE485A71EE492A97
:1012100038EEE14A32EE082A37EEA08A37EEE06A6D
:1012200078EEA11A31EE091A75EE048A72EEC67ACA
:1012300072EE862A71EE610A31EE211A35EE444AC9
:1012400032EE489A85ED001A32EE081A28EEA66AA8
:1012500027EEA65A68EEA58A85ED011A20EEA31A9C
:1012600069EE231A22EEA42A24EE248A67EEA57AD8
:1012700029EE079A60EE870A24EE034A62EE832A7B
:1012800035EE685A00E027E036EE276A71EE497ABB
:1012900031EEA01A72EE440AC4ED007A84ED011A10
:1012A00078EE221A87ED005A87ED016ACAED000A2E
:1012B0003344CAED011A8B4288D309F10109F14583
:1012C0007FF66CAF4FF6FF7303EA8B0B009B9B0816
:1012D0000093042B3FF65AAFDDF8041090ED003A6E
:1012E000D0ED044AD0ED032A90ED071A90ED024AA2
:1012F000D0ED061AD0ED013AD0ED050A33EE242ADE
:1013000072EE815A33EE643A34EE215A73EEA04AFB
:1013100073EEE03A32EEC11A74EE610A32EE454ADB
:1013200072EE052A74EEA51A34EEE55A73EE414AC0
:1013300033EEA02A33EE011A33EEE03A62EE805A21
:1013400061EE800A64EE003A65EE002AC0ED005AB4
:1013500064EE801AC0ED010A22EE002AC0ED023AC6
:1013600021EE004AC0ED032A23EE001AC0ED041A54
:1013700080ED052A80ED064A80ED071A2030491ECF
:10138000ACD102B0BDEC048BBDE8F08F70B5044663
:101390000D4680782188A389626801280ED02846EE
:1013A000FFF7C2FCE078012818BF70BDE2892188F0
:1013B0002846A368BDE8704000F066B894ED040AC2
:1013C0002846FFF741FEEDE710B40180234C44604E
:1013D00082704FF0000CC370B1F5807F20D004DC28
:1013E00010292FD0402906D122E0B1F5806F0FD00F
:1013F000B1F5805F04D04FF0FF3C10BC60467047F1
:1014000001218181C18116499FED160A816016E094
:1014100004218181C18114499FED140A81600EE08D
:1014200010218181C18112499FED120A816006E07D
:1014300040218181C18110499FED100A816080EDBA
:10144000040ADAE74FF480718181C1810C499FED74
:101450000D0A816080ED040ACFE70000B057040850
:10146000B04F040800008039B64F04080000803AED
:10147000CE4F04080000803B2E5004080000803C42
:10148000AE5104080000803D2DE9F0014E08012412
:101490004FF0000C04EB51076146A6F102082CE066
:1014A00061452AD200EBCC0500EBC104D5ED000A62
:1014B00094ED000AC4ED000A85ED000AD5ED010A9D
:1014C00094ED010AC4ED010A85ED010ACC1900EB87
:1014D000C4050CEB070400EBC40495ED000AD4ED41
:1014E000000AC5ED000A84ED000AD4ED010A95ED6D
:1014F000010AC5ED010A84ED010A00EBC104B44400
:1015000000EBCC0C94ED020ADCED000A891CC4ED62
:10151000020A8CED000ADCED010A94ED030AC4ED29
:10152000030A8CED010AB3F800C089B203EB420351
:101530004145B5D9BDE8F00170472DE9F007012517
:101540004C0805EB51064FF0000C651E6146002D5E
:1015500088BFA8462ED8BDE8F0077047614529D25C
:1015600050F8315050F83C7040F8317040F83C5021
:1015700000EBC10700EBCC097D68D9F804A0C7F8DF
:1015800004A0C9F804508D190CEB060750F83590EB
:1015900050F837A040F835A040F8379000EBC5056B
:1015A00000EBC707D5F80490D7F804A0C5F804A04D
:1015B000C7F8049000EBC105A444AF6850F83C9014
:1015C000C5F8089040F83C7000EBCC0CEF68DCF8F4
:1015D0000490C5F80C90CCF80470B3F800C0891CD6
:1015E00003EB42034145B9D3BDE8F00770472DE94D
:1015F000F00F01244D084FF0000C04EB5107012DB2
:101600009CBFBDE8F00F7047014600EB8704002641
:101610004FEA550815E000BFBCEB460F11D950F852
:101620002CA0D1F80090C1F800A040F82C900CEB51
:101630000709D4F800A050F829B0C4F800B040F869
:1016400029A0AC44D1F8049050F82CA0C1F804A013
:1016500040F82C90B3F800C008310834761C03EB36
:101660004203B8F10108D7D1BDE8F00F70477047C9
:1016700053EA020C00F069802DE9F04B4FF00006B0
:10168000002B1FBFB3FA83F503FA05F424FA05F61D
:101690005E4012BF1643B2FA82F502FA05F4C5F1B4
:1016A00020051EBF22FA05FC44EA0C04203556EA48
:1016B000044C4FEA144418BF641C4FF000084FF06C
:1016C0000009904271EB030C39D3002919BFB1FA1C
:1016D00081F701FA07F6B0FA80F700FA07F6C7F1CA
:1016E00020071EBF20FA07FC46EA0C062037B6FB8F
:1016F000F4FCA7EB0507103F07F01F0BCBF120060A
:101700000CFA0BFB2CFA06F644BFB3460026202F3A
:10171000A4BF5E464FF0000B5BEA060C08BF4FF01B
:10172000010B19EB0B09ABFB027C48EB0608C01B55
:1017300006FB02CC0BFB03CC71EB0C01C1E70B46A3
:10174000024641464846BDE8F08B13B54FF0000015
:101750004FF00001AFF30080BDE81C40704710B5AA
:101760004C1084EA530404D54042C1F1000138BF53
:10177000491E1B4204D55242C3F1000338BF5B1E11
:10178000FFF776FF14F0804F04D04042C1F1000112
:1017900038BF491E14F0004F04D05242C3F1000379
:1017A00038BF5B1E10BD00000A46014900F022BD93
:1017B000840000201CB50C46064B7B446946009013
:1017C000204600F0E0FC04460020694600F0EEFCF4
:1017D00020461CBDEF0900000FB41CB5084B06AA3B
:1017E0007B4469460090059800F0CDFC044600203B
:1017F000694600F0DBFC20461CBC5DF814FB0000D1
:10180000C90900000FB47CB50C0009AA009001D0F2
:101810002044401E084B7B4469460190089800F024
:10182000B2FC05461CB10020694600F0BFFC28460A
:101830007CBC5DF814FB00009D09000070B50446F7
:1018400085690068C10601D5302600E02026C00762
:1018500007D070BDD4E9012130469047206A401C72
:1018600020626D1EF6D570BD70B50446856900789E
:10187000C00707D170BDD4E9012120209047206A1C
:10188000401C20626D1EF6D570BD70B50C46054635
:10189000012A05D02878800600D5EA69002302E0F5
:1018A000012305E05B1C934202D2E05C0028F9D1E1
:1018B000A869E618C01AA861286A18442862284650
:1018C000FFF7BCFF04E0D5E9012114F8010B9047B4
:1018D000B442F8D32846FFF7C7FF70BD2DE9F041A9
:1018E0000646002410687529314616A510D000F070
:1018F000C6FB002802DA404213A507E031688A07D8
:1019000001D512A502E0490704D511A5012401E083
:1019100000F0BEFB00210A2206F1240709E0B0FB1B
:10192000F2FCB0FBF2F302FB1C0030307854184696
:10193000491C0028F3D123462A463046BDE8F04131
:1019400000F0AFBB000000002D0000002B000000E5
:10195000200000002DE9F0418046D21D22F0070250
:101960000025D2E90002F52915A614D0011E72F156
:10197000000106DA0023D0EB030063EB020211A69C
:1019800008E0D8F800108B0701D50FA602E0490740
:1019900001D50EA601251146002408F1240704E014
:1019A00000F028FB30323A55641C50EA0102F7D1AE
:1019B0002B46324621464046BDE8F04100F071BB5F
:1019C000000000002D0000002B000000200000009F
:1019D000F0B40D460188090502D5214C7C4402E093
:1019E0001F4C7C440E34002100F1240608E002F074
:1019F0000F071209E75D42EA03721B097754491C7D
:101A000052EA0307F3D102780023120704D5702DA0
:101A100006D009B1022311342246F0BC00F041BBCC
:101A200001231034F8E770B504460D4621461068CE
:101A300000F02EFB024629462046BDE870400023F8
:101A4000C6E7D21D22F00703D3E90023C0E70368ED
:101A5000126843F0200303600823C3610023B7E743
:101A6000D0BD04002DE9F05F894604464FF0000A1E
:101A7000DFF874B1FB44C0F820A02046E168884735
:101A8000002874D0252806D0D4E901219047206A87
:101A9000401C2062F1E700265F462046E168884747
:101AA0002028054607DB312D05D2781910F8200CC7
:101AB00008B10643F1E7B00701D526F00406C4F8E3
:101AC0001CA00027C4F818A02A2D09D028460AF027
:101AD00089FC38B304EB8708303DC8F8185019E08A
:101AE00059F8041B204604EB87029161E16888479E
:101AF000012F054618D1E069002820DA26F02006DB
:101B00001DE0D8F8180000EB800005EB40003038ED
:101B1000C8F818002046E168884705460AF062FCCC
:101B20000028EED1012F0AD02E2D08D12046E168E1
:101B300088477F1C0546022F46F02006C4DBA069BB
:101B4000002803DA404246F00106A061F00701D008
:101B500026F010066C2D0BD0682D09D04C2D39D0F5
:101B60006A2D35D0742D35D07A2D33D016E038E07B
:101B7000E1682F4620468847B842054609D16C2FB8
:101B800026D04FF48060E16806432046884705462A
:101B900004E06C2F1AD04FF4807006430DB3A5F10A
:101BA0004100192802D8203546F400664A462946E5
:101BB000204626604E46FEF741FB80B101280BD03F
:101BC000F61D26F0070000F1080956E74020E4E77B
:101BD0008020D8E70020D6E706F104094DE7284623
:101BE00052E7206ABDE8F09F60BD040070B506466C
:101BF00000F0FCF90468054630460A22002100F096
:101C0000A1FB2C6070BD30B505460B462A4613F883
:101C1000014B12F8010B08B1A042F8D01CB100280A
:101C200002D06D1CF1E7284630BD40EA01030246B0
:101C300030B59B0710D14FF0013400E008C208C94D
:101C40001D1B9D4315EAC41FF8D013F0FF0102F8D5
:101C5000011B0DD01B0AF8E711F8013B002B02F81D
:101C6000013B05D011F8013B002B02F8013BF3D1F9
:101C700030BD10B5431C02E010F8011B71B18107A3
:101C8000FAD14FF0013202C88C1A8C4314EAC21107
:101C9000F9D0C01A0A0603D0C01E10BDC01A10BD6C
:101CA0000A0401D0801E10BD0902FCD0401E10BDE8
:101CB00040EA010370B59B072ED14FF00136042A8C
:101CC0002AD308C810C99D1B9D43121F15EAC615CB
:101CD00017D0D8B2E1B2401A50EA056110D198B2DB
:101CE000A1B2401A50EA05410AD123F07F4024F006
:101CF0007F41401A50EA052102D1180EA0EB146072
:101D000070BDA342DBD018BA21BA884201D90120A4
:101D100070BD4FF0FF3070BD0AB9002070BD10F8E3
:101D2000013B11F8014B63B1A3420AD1521E08D006
:101D300010F8013B11F8014B1BB1A34201D1521E17
:101D4000EDD1181B70BD421E12F8013F002BFBD1D4
:101D500011F8013B002B02F8013BF9D17047032A2F
:101D600040F2308010F0030C00F0158011F8013BB8
:101D7000BCF1020F624498BF11F801CB00F8013B9F
:101D800038BF11F8013BA2F1040298BF00F801CB63
:101D900038BF00F8013B11F0030300F00B83083A51
:101DA000C0F0088051F8043B083A51F804CBA0E891
:101DB0000810F5E7121D5CBF51F8043B40F8043BE6
:101DC000AFF30080D20724BF11F8013B11F801CB1B
:101DD00048BF11F8012B24BF00F8013B00F801CBEC
:101DE00048BF00F8012B7047431A28BF9A427FF67C
:101DF000B6AF032A1044114440F2268010F0030FBE
:101E00001EBF11F8013D521E00F8013D10F0030FF6
:101E10007FF4F6AF11F0030300F01183083AC0F02D
:101E20000B8051F8043D083A51F804CD40F8043DC8
:101E300040F804CDFFF7F3BF121D5CBF51F8043D1D
:101E400040F8043DAFF30080D20724BF11F8013DF4
:101E500011F801CD48BF11F8012C24BF00F8013D55
:101E600000F801CD48BF00F8012C704702F0FF03D5
:101E700043EA032242EA024200F002B84FF00002B5
:101E80000429C0F0128010F0030C00F01B80CCF18C
:101E9000040CBCF1020F18BF00F8012BA8BF20F8FA
:101EA000022BA1EB0C0100F00DB85FEAC17C24BF4E
:101EB00000F8012B00F8012B48BF00F8012B7047F8
:101EC0004FF0000200B5134694469646203922BFD3
:101ED000A0E80C50A0E80C50B1F12001BFF4F7AF1E
:101EE000090728BFA0E80C5048BF0CC05DF804EB00
:101EF000890028BF40F8042B08BF704748BF20F86E
:101F0000022B11F0804F18BF00F8012B704710B55D
:101F1000044610F0030F08BF11F0030F40F01580C6
:101F20004FF0013E121FC0F20E8051F8043BA3EBAC
:101F30000E0C2CEA030C1CEACE1C08BF40F8043B34
:101F4000F0D0A1F1040102F10402521E08DB11F8E5
:101F5000013B002B00F8013BF7D11146FFF78EFF44
:101F6000204610BD4FF0013C50F8042B51F8043BC3
:101F70009A4221D1A2EB0C03934313EACC1317D15D
:101F800050F8042B51F8043B9A4215D1A2EB0C03F4
:101F9000934313EACC130BD150F8042B51F8043BB4
:101FA0009A4209D1A2EB0C03934313EACC13DBD082
:101FB0004FF00000704700BFD01A01BAB1FA81F1AA
:101FC00001F0180122FA01F0CB40C1F12001DBB28F
:101FD000C0B2C01A2CFA01F3D11A914311EAC3110D
:101FE000E6D17047704770477047704700487047A8
:101FF000BCE0002030B5B0F10A024FEA900E71F15A
:1020000000034EEA817EB0EB0E0061EB91014FEAD6
:10201000101E4EEA017E10EB0E0041EB11114FEA4B
:10202000102E4EEA016E10EB0E0041EB11214FEA2B
:10203000104E4EEA014E10EB0E0041EB11414018DC
:1020400041F100014FEAD00040EA41704FEAD1016E
:1020500010EB80054FEA810444EA907444EB0104DC
:102060006D1944EB0404521BA3414FF0000348BF19
:102070000A3200D530BD401C41F1000130BD096875
:102080004A0501D540B27047C905FCD500B270477A
:1020900009684A0501D5C0B27047C905FCD580B2B0
:1020A00070472DE9F0470D4699469246044600F1E7
:1020B00024080168880604D5E06921F01001216038
:1020C00000E00120A84201DD471B00E00027A169D4
:1020D0007A1902EB0900081AA0612078C00602D420
:1020E0002046FFF7ABFB002608E0D4E901211AF8EF
:1020F00006009047206A401C761C20624E45F4DBA7
:102100002078C0060AD52046FFF798FB06E0D4E900
:10211000012130209047206A401C2062381EA7F120
:102120000107F4DC07E0D4E9012118F80500904725
:10213000206A401C2062281EA5F10105F3DC204620
:10214000FFF792FB2078000602D50220BDE8F08759
:102150000120FBE711680268006A530501D5087089
:102160000AE0D30501D5088006E0130603D5C2179F
:10217000C1E9000200E008600120704701694A1CC3
:1021800002610878704700B58FB0CDE901310021B8
:10219000059105497944CDE9031011466846FFF7DA
:1021A00061FC0FB000BD0000E5FFFFFF0A6802F808
:1021B000010B0A607047D1E900239A4202D2531CF6
:1021C0000B601070704710B5436913B1AFF3008016
:1021D00001E0FFF75AFB012010BD127800F1240145
:1021E0000A7000224A700122EDE711684FF0FF32B9
:1021F000E9E70000074B70B50D467B44FFF7C3FFCE
:102200000446284600F045FD10B14FF0FF3070BD88
:10221000204670BD1FD100002DE9FF5F15468A469C
:102220000446DFF8AC80F8440027D8E900103E46A9
:10223000CDE9001010E03AF816106A4602A800F046
:102240002CFD411C07D02178890603D5E269391895
:1022500091420DD80744761C2078800602D5E069AB
:10226000B84205DDAE42E6DB3AF816000028E2D1BE
:10227000A069C01BA0612046FFF7E0FAD8E9001072
:10228000CDE90010002017E03AF818106A4602A8BD
:1022900000F003FDB0F1FF3F81460BD000250DF1AA
:1022A000080B05E0D4E901211BF8050090476D1CDF
:1022B0004D45F7D308F10100B0428046E4DB206AC7
:1022C000384420622046FFF7CFFABDE8FF9F0000A8
:1022D000C2B5040030B4002100F1240408E002F08B
:1022E0000705D208303542EA4372DB086554491CC1
:1022F00052EA0305F3D10468002310A2250707D58D
:10230000A40600D421B1C46901230DA2641EC461D6
:1023100030BCFFF7C6BE10B5044621461068FFF773
:10232000B7FE02462046BDE810400023D2E7D21D8A
:1023300022F00701D1E90023CCE7000000000000F3
:10234000300000002DE9F04791460F4680460446D4
:10235000002614F8015B2DB100F0A0F80068405D84
:10236000C007F6D12B2D02D02D2D18D0641E4A4661
:102370003946204600F03EFC27B13968A14201D120
:10238000C7F800804FF0020471050BD540420028C9
:1023900003DDFFF72BFE0460A007BDE8F08746F4DD
:1023A0008066E4E70028F8DAFFF720FE04606FF0AB
:1023B0000040F2E710B5203AC0F00B80B1E81850A9
:1023C000203AA0E81850B1E81850A0E81850BFF41F
:1023D000F5AF5FEA027C24BFB1E81850A0E81850BE
:1023E00044BF18C918C0BDE810405FEA827C24BF12
:1023F00051F8043B40F8043B08BF7047D20728BFA0
:1024000031F8023B48BF11F8012B28BF20F8023BEE
:1024100048BF00F8012B7047431A28BF9A427FF645
:10242000C9AF104410F0030F11441EBF11F8013D55
:10243000521E00F8013D10F0030F7FF4F6AF103A82
:10244000C0F00A8010B531E91850103A20E9185050
:10245000BFF4F9AFBDE81040530724BF31E90810BD
:1024600020E9081044BF51F8043D40F8043D12F043
:10247000030F08BF7047D20728BF31F8023D48BF9D
:1024800011F8012C28BF20F8023D48BF00F8012CAC
:102490007047000000487047BCE0002010B500F015
:1024A00041FC001D10BD00BF5144010070472DE9E3
:1024B000FF4F0C461E464FF0FF378BB0D2E90001AC
:1024C000DDF860800A908A46C1F30A5505B93D4699
:1024D000002108464FF00000BAF1000F00F4400060
:1024E00005DA00EB80004FF4400101EA50004FEAAA
:1024F0009059B9F1010F00DDB9460A9850EA4A0037
:102500000ED044F61050A5F2FF3545432F14B8F114
:10251000000F1ED07542291E1EDDC9F100021CE00D
:10252000B8F1010F4FF0000001D0302103E0F24379
:1025300005E02154401CB042FBDB30460022002164
:1025400021540B99C1F80880C1E900200FB0BDE803
:10255000F08FBD1B6D1CDEE74A4600DA694206A813
:1025600000F032FC06AB93E8070003AB83E80700FA
:1025700050460A9900F0A3FC8DE80700A0F5005032
:102580001F3800900398002D0ADD42F21F014A46D1
:102590000844002303A90390684600F00CFF09E0FB
:1025A000A0F500504A461F38002303A9039068464F
:1025B00000F016FF8DE807000004000C03D04FF078
:1025C000FF30410800E01046B8F1000F03D00022B0
:1025D000009215461EE0751E05D4FFF70BFD303244
:1025E00062556D1EF9D5B3460122084302D0002280
:1025F0007F1C04E02078302801D100227F1E002AB1
:10260000099784D01DE0112D07DAFFF7F3FC303273
:1026100062556D1C50EA0102F5D1084302D00098C2
:10262000C8B10EE00021681E05E0235C625C6354C3
:102630002254401E491C8142F7DBAB46A81B401EBA
:102640000990002004F80B000B98099AC0F8088044
:10265000C0E9002B7AE711264FF0000857E72DE973
:10266000F04F88460446D21D22F0070191B0D1E90F
:102670000001CDE90A0109F09DFE02460B98C00F4A
:1026800001D02D2007E02068810701D52B2002E032
:10269000202101EAC000032A099001D0072A05DBA6
:1026A00003464146204600F041FB0BE120788006BE
:1026B00001D5E06900E00620B8F1650F814606D03B
:1026C000B8F1660F18D0B8F1670F70D131E0002073
:1026D000B9F1110F009001DB112301E009F10103B1
:1026E0000AAA01A90CA8FFF7E2FEDDE90C7000269A
:1026F00009F10105834647E001204B4600904FF069
:1027000000470AAA01A90CA8FFF7D1FEDDE90DB028
:102710000C995D46002610B909F101000D18B9EBBE
:10272000050003D4C0F1FF3609F10105A5EB09004E
:102730002BE0B9F1010F01DA4FF001090020B9F1E6
:10274000110F0090484601DD112300E003460AAA5C
:1027500001A90CA8FFF7ABFEDDE90C704D46002681
:102760008346207800070AD4AB4500DA5D4601A80D
:10277000012D04DD411911F8011C302907D04F4506
:1027800002DA17F1040F04DA012082460FE06D1E11
:10279000EEE7002F02DCED1B3E4403E0781CA8426C
:1027A00000DD7D1CB81B00F1010A4FF000472078C6
:1027B000000703D4AA4501DB4FF0FF3A0021B7F12F
:1027C000004F0DF143088DF8431024D002202B2335
:1027D000002F01DA7F422D230A21021EA0F1010001
:1027E00000DC5FB197FBF1FC97FBF1F201FB1C7C75
:1027F00017460CF1300C08F801CDEEE7A8F1010006
:1028000003702188090501D5452100E06521A0F16B
:10281000010800F8011C09980FA9A1EB0807FF1D8A
:1028200000B10120411901EBEA70A1693844081A8E
:10283000401EA0612078C00602D42046FEF7FEFFAD
:10284000099828B1D4E901219047206A401C2062F0
:102850002078C00622D52046FEF7F0FF1EE0002EAD
:1028600004DBB34502DD01A8805D00E03020D4E93F
:1028700001219047206A401C2062761CAAF10100C9
:102880005FEA000A0AD100F04DFAC0680168405CB6
:10289000D4E901219047206A401C2062281EA5F13E
:1028A0000105DCDC07E0D4E9012118F8010B9047B1
:1028B000206A401C2062381EA7F10107F3DC204685
:1028C000FEF7D2FF032011B041E600002DE9F04FE2
:1028D00004460D46D21D22F0070089B0D0E90097CA
:1028E0004846394609F066FD0246F80F01D02D230F
:1028F00007E02068810701D52B2302E0202101EAAF
:10290000C0038DF820300BB1012000E00020032A25
:10291000824601D0072A04DB2946204600F006FA49
:102920003FE12078800601D40D2500E0E569C7F37A
:102930000A560D2D49DA00214FEA175B08464FF081
:102940000000002F00F4400007DA00EB80004FF495
:10295000400100EBD07001EA60008115012901DD22
:102960004FF0FF3100224FEA850CBCF1180F06D35F
:102970001346ACF118004FF08052C24003E04FF410
:10298000801323FA0CF30CF10C0CBCF1200F04D3D0
:10299000ACF1200C09FA0CF001E007FA0CF0002968
:1029A0004FF0004801DD18B90FE00ED140450CD3BF
:1029B00019EB02095F4121B9404502D19F4329EA41
:1029C0000209BBEB175F00D0761C2088000502D5FA
:1029D0007B48784402E07A487844193808AA3023C2
:1029E00002F80A30037C0AF10101002E0AF1020A02
:1029F00053546A4602DC4FF0300101E04FF03101E0
:102A00004FF001088DF8001002D0A6F2FF3603E067
:102A100059EA470100D06B4E002D02DC21780907EE
:102A200004D54FF002082E218DF80110C446002174
:102A30000BE0C7F303433F01C35C491C6D1E02F862
:102A40000830052908F1010801DA002DF1DC002128
:102A50000CE000EB1973491C1B786D1E082902F865
:102A600008304FEA091908F1010801DA002DF0DCFD
:102A700021688B0602D516E0A8F10108E04505DDC6
:102A800002EB080313F8013C302BF5D0B8F1000F2E
:102A900009DD02EB080313F8013C2E2B03D10907D3
:102AA00001D4A8F10108002D05DD3E2102F808102F
:102AB0006D1E08F10108407C002E02F8080008F1A4
:102AC000010804DA2D20764202F8080002E02B20EB
:102AD00002F808000A214FF47A70864208F10108D2
:102AE0000BDB96FBF0F3303302F8083096FBF0F383
:102AF00008F1010800FB136601E0642E0CDB642082
:102B000096FBF0F3303302F8083096FBF0F308F14F
:102B1000010800FB136601E00A2E06DB96FBF1F0CC
:102B2000303002F8080008F1010896FBF1F001FBD3
:102B30001060303002F80800A16908F1010808EBC4
:102B4000050202EB0A00081AA0612078C00602D430
:102B50002046FEF773FE216A08AE01EB0A002062F0
:102B600004E0D4E9012116F8010B9047BAF1010AFB
:102B7000F7D22078C00602D52046FEF75FFE6E46EB
:102B800009E016F8010B3E280FD0D4E90121904747
:102B9000206A401C2062B8F10108F2D22046FEF7FC
:102BA00063FE09B00320BDE8F08F206A284420624C
:102BB00003E0D4E90121302090476D1EEBD3F8E704
:102BC00031AE040002FCFFFF10B5436913B1AFF34F
:102BD000008001E0FFF720FB012010BD128800F10A
:102BE000240182840022C2840122EDE711684FF0A3
:102BF000FF32E9E72DE9F05F824615468B46002754
:102C00000AF10104B9460078302801D09DB113E0E3
:102C100014F8010B0127782803D0582801D045B1BA
:102C20000AE00DB1102D07D1002714F8010B102573
:102C300002E0082500E00A250026B0460EE005FB6C
:102C4000080005FB06F101271FFA80F801EB10468A
:102C5000B6F5803F00D3B94614F8010B294600F0C1
:102C6000A5F80028EBDABBF1000F05D00FB1641E08
:102C700000E05446CBF80040B9F1000F06D0FFF752
:102C8000B5F902210160C81EBDE8F09F48EA064080
:102C9000FAE7007B00F08000704770B516460C46DE
:102CA0000546FFF7FBFB036893F80101012806D0F6
:102CB000FF2C0FD8185D68B101202C7070BDD3F8BF
:102CC00007013246214603F2071303442846BDE8B4
:102CD000704018474FF0FF3070BD7546FFF7DAFBC4
:102CE000AE4605006946534620F00700854618B0F9
:102CF00020B5FDF77DFBBDE820404FF000064FF00A
:102D000000074FF000084FF0000B21F00701AC4620
:102D1000ACE8C009ACE8C009ACE8C009ACE8C0093F
:102D20008D46704700487047DCE000202DE9F041F7
:102D30001F46044603260168072A01F4006004DBED
:102D400008B116A505E016A503E008B115A500E039
:102D500015A521F010002060A069C01EA0610FB170
:102D6000401EA0612046FEF769FD4FB1D4E9012164
:102D700038469047206A401C2062C01C206206E052
:102D8000206AFAE7D4E9012115F8010B9047761E75
:102D9000F8D22046FEF768FDBDE8F0814E414E00B6
:102DA0006E616E00494E4600696E66003A2800D298
:102DB000303820F02002412A01D3A2F137008842A6
:102DC00001D34FF0FF3070472DE9F047814616469A
:102DD0008AB0354878440DC88DE80D0032487844F3
:102DE000801C03AC0DC884E80D0041F69B300844FC
:102DF000372190FBF1F290FBF1F5A5F1800501FB85
:102E000012041B3C02D56442012000E00020DFF8E0
:102E100098A080460027FA44AAF1BE0A0EE0E00717
:102E20000AD03246684607EB470101230AEB8101CD
:102E300000F0D6FA8DE8070064107F1C002CEED15C
:102E4000194F7F44AE3F19E0E80715D007EB041097
:102E50000DF1180A90E80E008AE80E00C068F042F2
:102E600001D1981908903246012306A903A800F061
:102E7000B7FA03AB83E807006D10641C002DE3D1A3
:102E80004FF0010332466946B8F1000F03A802D0A3
:102E900000F091FA01E000F0A3FAC9E90001C9F8D5
:102EA00008200AB0BDE8F087C0AA040010B50446A7
:102EB000AFF300802046BDE81040FDF724BA5FEA7A
:102EC000400C08BF91F0000F4FEA8C234FEAC1225B
:102ED00043EA51514FEA1C5018BF00F5F0404FEA49
:102EE000300018BF41F000415FEA6C5C00F02980BF
:102EF000BCF1FF3F08BF40F080407047130C06BF95
:102F000012044FF0100C4FF0000C130E04BF12020D
:102F10000CF1080C130F04BF12010CF1040C930FF9
:102F200004BF92000CF1020CD30F04BF52000CF14D
:102F3000010C11464FF00002A0F11F00A0EB0C00A5
:102F4000704711F0004F08BF704731F000413FF467
:102F5000D5AF0B0C06BF09044FF0100C4FF0000C5E
:102F60000B0E04BF09020CF1080C0B0F04BF090182
:102F70000CF1040C8B0F04BF89000CF1020CCB0F79
:102F800004BF49000CF1010CCCF12003A0EB0C00B4
:102F900022FA03F302FA0CF241EA030100F1010004
:102FA000704720F07F4C80EA030023F07F47ACEBB2
:102FB000070303F57C5300F0004003F1FF032DE904
:102FC00080494FEA154B09B44FEA144325EA0B4EEA
:102FD00024EA03480FF2042606EB132749083E783B
:102FE0005FEA320203FB0667C7F5000707FB06F638
:102FF0004FEA54374FEAD64606F1020607FB066C45
:10300000CCF1005C4FEA1C472CEA074C07FB06F4A6
:103010000CFB06F504EB15464FEA961634BF00206C
:103020004FF000404FEAD13706FB07FC4FEA1C4C3B
:103030000CFB0BF7D21B03FB0CF761EB07010CFB3E
:103040000EF7B0EB074072EB17420CFB08F734BFEA
:10305000A2EB0742B2EB074261EB17414FEA0C4487
:103060004FEA910706FB07FC4FEA1C4C0CFB0BF7E1
:10307000B0EBC74072EB573203FB0CF734BFA2EB47
:10308000C742B2EBC74261EB57310CFB0EF7B0EB16
:10309000C70072EB57720CFB08F734BFA2EBC702F4
:1030A000B2EBC70261EB5771039F4FEA816141EABE
:1030B000921104EBCC044FEAD1374FEA826206FB4F
:1030C00007FC42EA90124FEA80604FEA1C4C0CFB6E
:1030D0000BF7D21B03FB0CF761EB07010CFB0EF7A0
:1030E000B0EB074072EB17420CFB08F734BFA2EBC2
:1030F0000742B2EB074261EB17414FEA8C554FEAAA
:10310000910704EB9C2406FB07FC4FEA1C4C0CFBCC
:103110000BF7B0EBC74072EB573203FB0CF734BF31
:10312000A2EBC742B2EBC74261EB57310CFB0EF783
:10313000B0EBC70072EB57720CFB08F734BFA2EB81
:10314000C702B2EBC70261EB577115EB4C254FEA92
:10315000816141EA92114FEA82624FEAD13742EA35
:10316000901206FB07FC44F100044FEA80604FEA2E
:103170001C4C0CFB0BF7D21B03FB0CF761EB07019C
:103180000CFB0EF7B0EB074072EB17420CFB08F795
:1031900034BFA2EB0742B2EB074261EB174115EBDC
:1031A0001C154FEA813141EA92414FEA823242EAEC
:1031B00090424FEA80304FEA0C7644F1000448EA2E
:1031C00003434EEA0B484FF0000EB2EB080C71EBD4
:1031D000030724BF624639464EEB0E0E4FF0000B3C
:1031E0000018524149414BEB0B0BB2EB080C71EB51
:1031F00003077BF1000B24BF624639464EEB0E0EEF
:103200004FF0000B0018524149414BEB0B0BB2EB56
:10321000080C71EB03077BF1000B24BF62463946B3
:103220004EEB0E0E51EA020718BF46F0010616EBF0
:103230000E7655F1000254F1000103D5BDE8890175
:10324000BDE80088BDE88901BDE80048B6195241D3
:1032500041EB0101A3F10103704780807F7E7D7CFB
:103260007B7A7978777676757473727171706F6E18
:103270006E6D6C6C6B6A6A696868676666656464C3
:10328000636362616160605F5F5E5E5D5D5C5C5B4D
:103290005B5A5A59595858575756565555555454BC
:1032A000535352525251515050504F4F4F4E4E4D1A
:1032B0004D4D4C4C4C4B4B4B4A4A4A494949484866
:1032C00048474747474646464545454444444443A6
:1032D00043434342424242414141002B9C4630D449
:1032E00077002BD01CB54FEA370703B44FF010001E
:1032F0004FF01001BAF1000F06D0BCF1000FDCBF97
:1033000040F0080040F008014FF000000FBCBDE89D
:1033100010400BF1010BBBF1010F08BF5FEA17076B
:1033200022BF12F1010211F101014FF0004143F1FE
:10333000000300F0004043EA00007047F9D357084B
:10334000D0E746EA064613F1400F4FEA16461FDD66
:1033500013F1200FDFBF16430A46002120335B42E2
:10336000BED0C3F1200746EA064602FA07F74FEA45
:10337000164646EA0706C3F1200722FA03F201FACD
:1033800007F721FA03F14FF0000342EA0702A7E72B
:1033900046EA020646EA06464FEA164646EA0106AD
:1033A000BCBF46EA0646360C4FF000034FF0000261
:1033B0004FF0000194E72DE9804C9A46934670B493
:1033C00091E8380007C831EA400C48BF34EA430CA2
:1033D00003D5FFF7E6FDFFF780FFF0BCBDE8008CEA
:1033E0002DE9804C9A46934670B491E8380007C89E
:1033F00010F0804F08BF13F0804F03D100F005F8A4
:10340000FFF76BFFF0BCBDE8008C20F07F4780EA3F
:10341000030023F07F4C07EB0C03A3F57C5300F073
:103420000040A3F1FE0392F0000F00F0B38095F08E
:10343000000F00F077802DE901494FEA11404FEA73
:10344000144621EA004800FB06FC24EA064708FB74
:1034500006F607FB08F800FB07F718EB06484CEBED
:10346000164C4FEA124B18EB07484FEA15464CEB47
:10347000174022EA0B4E0BFB06FC25EA06470EFB23
:1034800006F607FB0EFE0BFB07F71EEB064E4CEB9A
:10349000164C4FF000061EEB074E4CEB174B18EB8B
:1034A0000B0840F1000018EB0E0B58EB000840F140
:1034B00000008F1A4FF000013CBFC943661B14BFC8
:1034C000B5EB040C00213CBFC943F61B4FEA17447F
:1034D0004EEA8E0E27EA04454FEA1C4704FB0762BA
:1034E0002CEA074C05FB07F70CFB05F604FB0CFC6C
:1034F00016EB074642EB174216EB0C4642EB1C421A
:103500001BEB060658EB0202414146EA9E0601D536
:10351000BDE80189B619524141EB0101A3F1010354
:10352000BDE801894FEA14454FEA114724EA0546F0
:1035300021EA074C05FB07F406FB07F70CFB06F135
:1035400005FB0CFC11EB074144EB17444FEA124713
:1035500011EB0C4144EB1C4422EA074C05FB07F23B
:1035600006FB07F70CFB06F605FB0CFC16EB074603
:1035700042EB174216EB0C4642EB1C456A1854F11D
:10358000000148BF7047B619524141EB0101A3F158
:103590000103704795F0000F37D04FEA11424FEA10
:1035A000144721EA024624EA074C02FB07F106FB16
:1035B00007F70CFB06F402FB0CFC14EB074441EB91
:1035C00017414FEA154714EB0C4441EB1C4125EA27
:1035D000074C02FB07F506FB07F70CFB06F602FBA0
:1035E0000CFC16EB074645EB174516EB0C4645EB76
:1035F0001C42121951F1000148BF7047B6195241DF
:1036000041EB0101A3F1010370474FEA14454FEA72
:10361000114724EA054621EA074C05FB07F106FBA2
:1036200007F70CFB06F24FF0000605FB0CFC12EB53
:10363000074241EB174112EB0C4251EB1C4148BFD2
:103640007047921841EB0101A3F10103704700009C
:103650002DE9F05F0D46044601E1834ED4F844B0F5
:10366000D4F84880D6F800A059465046D6F80490C1
:10367000FCF7CEFE074641464846FCF7C9FE381A1D
:103680004000606441465046FCF7C2FE074659467A
:103690004846FCF7BDFE38444000A064D4F840B072
:1036A000D6F80890D4F84C8059464846D6F80CA075
:1036B000FCF7AEFE074641465046FCF7A9FE381A15
:1036C0004000206441464846FCF7A2FE07465946A2
:1036D0005046FCF79DFE38444000E064D4F83CB00E
:1036E000D6F810A0D4F8508059465046D6F8149019
:1036F000FCF78EFE074641464846FCF789FE381A1D
:103700004000E06341465046FCF782FE07465946BA
:103710004846FCF77DFE384440002065D4F838B0B8
:10372000D6F81890D4F8548059464846D6F81CA0CC
:10373000FCF76EFE074641465046FCF769FE381A14
:103740004000A06341464846FCF762FE07465946E2
:103750005046FCF75DFE384440006065D4F834B054
:10376000D6F820A0D4F8589059465046D6F8248070
:10377000FCF74EFE074649464046FCF749FE381A1C
:103780004000606349465046FCF742FE07465946F2
:103790004046FCF73DFE38444000A065D4F830B008
:1037A000D6F828A0D4F85C8059465046D6F82C901C
:1037B000FCF72EFE074641464846FCF729FE381A1C
:1037C0004000206341465046FCF722FE074659461A
:1037D0004846FCF71DFE38444000E065D4F82CB0A4
:1037E000D6F830A0D4F8609059465046D6F83480C8
:1037F000FCF70EFE074649464046FCF709FE381A1C
:103800004000E06249465046FCF702FE0746594632
:103810004046FCF7FDFD384440002066D4F828906F
:10382000D6F83880D4F864A0F66B49464046FCF7D9
:10383000EFFD074651463046FCF7EAFD381A4000D6
:10384000A06251464046FCF7E3FD07464946304634
:10385000FCF7DEFD38444000606648346D1E002DE4
:103860003FF7FBAEBDE8F09FB899010804A22C21F8
:103870000F4808F013F8012080F31088FEE70000DD
:103880000D0A235B6572726F725F6D73675D3A201C
:10389000427573204661756C742065786365707439
:1038A000696F6E206F63637572210D0A000000005E
:1038B0000010014008B1002103E0202070474000C3
:1038C000491C0028FBDA0846704708B1002103E0D4
:1038D000202070474000491C0028FBDA084670474A
:1038E00030B54C2B04D0522B0DD10024234612E0CE
:1038F0000024234605E030F8135021F814509B1C97
:10390000641C9342F7D330BD00EB43059B1C6D88CC
:1039100021F81450641C9342F6D330BD00221346A4
:1039200001E08354521C8A42FBDB704770B50025CE
:103930004FF4803405E0802004F04EF808B144B123
:1039400001E0641EF7D240F2FF5003F089FF2846E1
:1039500070BD032070BD000010B504461348016817
:1039600011F0450FFBD0042004F036F820B10420FC
:1039700003F076FF032010BD012004F02DF820B1E4
:10398000012003F06DFF012010BD084824380068B5
:10399000A04201D0102010BD40F2FF5003F060FFA4
:1039A00002482038006800F0080010BD342C0140A7
:1039B00010B500244FF480310E4809E0026812F07F
:1039C000450F05D009B1500705D5032404200CE0AC
:1039D000491EF3D2F7E7012003F0FEFF18B10124DE
:1039E000204603F03DFF40F2FF5003F039FF204630
:1039F00010BD0000342C014010B50A49086810F0D1
:103A0000450FFBD0042003F0E7FF20B1042003F0B2
:103A100027FF032010BD40F2FF5003F021FF0020DC
:103A200010BD0000342C014070B506461C480D4600
:103A30000024026812F0450FFBD0042003F0CCFFF5
:103A400020B1042003F00CFF032070BD012003F01F
:103A5000C3FF20B1012003F003FF012070BD104817
:103A600024380068B04212D140F2FF5003F0F8FE53
:103A70000B482038026812F4604F03D0900404D53C
:103A8000132070BD100C288007E0500401D51020D1
:103A900070BD100401D50F2070BD204670BD000020
:103AA000342C014010B500244FF480320B4809E05B
:103AB000016811F0450F05D00AB1480705D5032468
:103AC000042006E0521EF3D2F7E7480603D500248F
:103AD000402003F0C5FE204610BD0000342C0140FC
:103AE00038B50120094C0A4D00902146284600F0C7
:103AF00011FD012808D12146284600F061F805484B
:103B00006946806810F09EFD38BD000000800018F6
:103B1000586002409800002038B50120094C0A4D39
:103B200000902146284600F0F5FC012808D12146E6
:103B3000284600F045F805486946406810F082FDC7
:103B400038BD0000208000207060024098000020F6
:103B500038B50120094C0A4D00902146284600F056
:103B6000D9FC012808D12146284600F029F805484B
:103B70006946806B10F066FD38BD000000880020AB
:103B8000886002402400002038B50120094C0A4D0D
:103B900000902146284600F0BDFC012808D12146AE
:103BA000284600F00DF805486946406B10F04AFDC4
:103BB00038BD000000802020A060024024000020CA
:103BC00070B504463148324E0D4684423ED02F48EF
:103BD000183084423AD02D483030844236D02B48B9
:103BE0004830844232D02948603084422ED0274861
:103BF000783084422AD025489030844226D0234809
:103C0000A830844222D0B44220D0214818308442C7
:103C10001CD01F483030844218D01D4848308442A0
:103C200014D01B486030844210D019487830844248
:103C30000CD017489030844208D01548A8308442F0
:103C400004D040F2E94113A008F0D4FBC5F30170A1
:103C5000032806D015F0405F03D015B11C4805427B
:103C600004D040F2EA410BA008F0C4FBB44202D2F7
:103C70000648103801E0064810381649AA0005EA3F
:103C8000010501D5C56070BD856070BD1060024042
:103C9000106402402E2E5C4C696272617269657319
:103CA0005C53544D3332463478785F5374645065B6
:103CB000726970685F4472697665725C7372635C86
:103CC00073746D3332663478785F646D612E63008F
:103CD000820082407D0F7D0F70B504462A480D4654
:103CE00084423FD02848183084423BD026483030A8
:103CF000844237D024484830844233D02248603050
:103D000084422FD02048783084422BD01E489030F7
:103D1000844227D01C48A830844223D01B488442C8
:103D200020D01A48183084421CD0184830308442C1
:103D300018D016484830844214D014486030844269
:103D400010D01248783084420CD010489030844211
:103D500008D00E48A830844204D040F2E1110CA0F3
:103D600008F048FB55B1012D04D04FF4F17108A0C3
:103D700008F040FB206840F0010002E0206820F0DD
:103D80000100206070BD000010600240106402401D
:103D90002E2E5C4C69627261726965735C53544D7E
:103DA0003332463478785F53746450657269706852
:103DB0005F4472697665725C7372635C73746D33B1
:103DC00032663478785F646D612E63002DE9F05FB0
:103DD000614E614F604DDFF88081DFF87CA1DFF834
:103DE00078B118363037044608F148080AF1600AFD
:103DF0000BF1780BA84234D0B44232D0BC4230D060
:103E000044452ED054452CD05C452AD052489030A1
:103E1000844226D05048A830844222D04F48844261
:103E20001FD04E48183084421BD04C48303084425A
:103E300017D04A484830844213D048486030844202
:103E40000FD04648783084420BD0444890308442AA
:103E500007D04248A830844203D0C72140A008F0D0
:103E6000C9FA206820F00100206000202060606016
:103E7000A060E06020612120606137484FF03D097B
:103E80001038AC4201D1494603E04FF47461B442AA
:103E900002D18160BDE8F09F4FF4741CBC4202D196
:103EA000C0F808C0F6E74FF07467444501D1876059
:103EB000F0E73A4A544501D1C260EBE7384B5C4524
:103EC00001D1C360E6E7244E364D9036B44201D1AD
:103ED000C560DFE7DFF880804FF03D5608F1A808A5
:103EE000444501D1C660D5E71C48DFF8708008382A
:103EF000444501D1494605E0DFF8608008F1180823
:103F0000444501D10160C5E7144930318C4202D1EA
:103F1000C0F800C0BEE7114948318C4201D10760AA
:103F2000B8E70E490D486031001F8C4201D1026094
:103F3000B0E70A4978318C4201D10360AAE707490A
:103F400090318C4201D10560A4E70449A8318C422C
:103F5000A0D106609EE7000010600240106402409D
:103F60002E2E5C4C69627261726965735C53544DAC
:103F70003332463478785F53746450657269706880
:103F80005F4472697665725C7372635C73746D33DF
:103F900032663478785F646D612E63003D000020E6
:103FA000400F002000003D2070B504462A480D4611
:103FB00084423FD02848183084423BD026483030D5
:103FC000844237D024484830844233D0224860307D
:103FD00084422FD02048783084422BD01E48903025
:103FE000844227D01C48A830844223D01B488442F6
:103FF00020D01A48183084421CD0184830308442EF
:1040000018D016484830844214D014486030844296
:1040100010D01248783084420CD01048903084423E
:1040200008D00E48A830844204D04FF43F710CA051
:1040300008F0E0F955B1012D04D040F2FD2108A0AF
:1040400008F0D8F9206840F4802002E0206820F4CD
:104050008020206070BD00001060024010640240AB
:104060002E2E5C4C69627261726965735C53544DAB
:104070003332463478785F5374645065726970687F
:104080005F4472697665725C7372635C73746D33DE
:1040900032663478785F646D612E630070B50446D3
:1040A0002B4815460E4684423FD02948183084429A
:1040B0003BD027483030844237D0254848308442AE
:1040C00033D02348603084422FD021487830844256
:1040D0002BD01F489030844227D01D48A8308442FE
:1040E00023D01C48844220D01A48183084421CD067
:1040F00018483030844218D016484830844214D0D2
:1041000014486030844210D01248783084420CD079
:1041100010489030844208D00E48A830844204D021
:1041200040F2DE210CA008F065F95DB1B5F5002F75
:1041300004D040F2DF2108A008F05CF9206840F4C8
:10414000002002E0206820F400202060266170BD7D
:1041500010600240106402402E2E5C4C6962726155
:10416000726965735C53544D3332463478785F53CB
:1041700074645065726970685F4472697665725CD8
:104180007372635C73746D3332663478785F646D18
:10419000612E630070B504462A480D4684423FD024
:1041A0002848183084423BD026483030844237D0EB
:1041B00024484830844233D02248603084422FD093
:1041C0002048783084422BD01E489030844227D03B
:1041D0001C48A830844223D01B48844220D01A486F
:1041E000183084421CD018483030844218D0164809
:1041F0004830844214D014486030844210D01248B1
:10420000783084420CD010489030844208D00E4858
:10421000A830844204D040F229210CA008F0EAF82A
:1042200055B1202D04D040F22A2108A008F0E2F870
:10423000206840F0200002E0206820F0200020608C
:1042400070BD000010600240106402402E2E5C4CD5
:1042500069627261726965735C53544D33324634DE
:1042600078785F5374645065726970685F447269EE
:104270007665725C7372635C73746D333266347826
:10428000785F646D612E630070B504462448002594
:1042900084423FD02248183084423BD020483030FE
:1042A000844237D01E484830844233D01C486030A6
:1042B00084422FD01A48783084422BD0184890304E
:1042C000844227D01648A830844223D0154884421F
:1042D00020D01448183084421CD012483030844218
:1042E00018D010484830844214D00E4860308442C0
:1042F00010D00C48783084420CD00A489030844268
:1043000008D00848A830844204D04FF46D7106A04C
:1043100008F070F82068C00700D00125284670BD5D
:1043200010600240106402402E2E5C4C6962726183
:10433000726965735C53544D3332463478785F53F9
:1043400074645065726970685F4472697665725C06
:104350007372635C73746D3332663478785F646D46
:10436000612E630010B50446224884423FD02148A4
:10437000183084423BD01F483030844237D01D482B
:104380004830844233D01B48603084422FD01948D3
:10439000783084422BD017489030844227D015487B
:1043A000A830844223D01448844220D012481830C8
:1043B00084421CD010483030844218D00E48483017
:1043C000844214D00C486030844210D00A487830BF
:1043D00084420CD008489030844208D00648A83067
:1043E000844204D040F28A2104A008F003F86068F7
:1043F00080B210BD10600240106402402E2E5C4C52
:1044000069627261726965735C53544D333246342C
:1044100078785F5374645065726970685F4472693C
:104420007665725C7372635C73746D333266347874
:10443000785F646D612E630070B5044624480025E2
:1044400084423FD02248183084423BD0204830304C
:10445000844237D01E484830844233D01C486030F4
:1044600084422FD01A48783084422BD0184890309C
:10447000844227D01648A830844223D0154884426D
:1044800020D01448183084421CD012483030844266
:1044900018D010484830844214D00E48603084420E
:1044A00010D00C48783084420CD00A4890308442B6
:1044B00008D00848A830844204D040F2413106A018
:1044C00007F098FF2068000300D50125284670BD3D
:1044D00010600240106402402E2E5C4C69627261D2
:1044E000726965735C53544D3332463478785F5348
:1044F00074645065726970685F4472697665725C55
:104500007372635C73746D3332663478785F646D94
:10451000612E63002DE9F041054675480026754F70
:104520000C4685423ED07248183085423AD07048D9
:104530003030854236D06E484830854232D06C48A3
:10454000603085422ED06A48783085422AD068484B
:104550009030854226D06648A830854222D0BD42A0
:1045600020D06448183085421CD0624830308542E3
:1045700018D060484830854214D05E48603085428B
:1045800010D05C48783085420CD05A489030854233
:1045900008D05848A830854204D040F2994156A02E
:1045A00007F028FF634884427DD0634884427DD071
:1045B000624884427AD0A4F11020001F76D06FF0B8
:1045C0001040C44272D05E4884426FD05D4884423D
:1045D0006CD05D48844269D05C48844266D05C48B7
:1045E000844263D05B48844260D05B4884425DD0A3
:1045F0005A4884425AD05A48844257D05948844233
:1046000054D05948844251D0584884424ED05848DA
:1046100084424BD05748844248D05748844245D0C2
:104620005648844242D0564884423FD0A4F12020CC
:1046300008383BD05348844238D06FF02040C44201
:1046400034D05148844231D0504884422ED0504812
:1046500084422BD04B48FC30844227D04D488442C2
:1046600024D04D48844221D04C4884421ED04C482E
:1046700084421BD04B48844218D04B48844215D00A
:104680004A48844212D04A4884420FD04948844262
:104690000CD04948844209D04848844206D040F2B0
:1046A0009A4115A000E001E007F0A4FEBD4202D24D
:1046B0000F48103801E00F48103841490C4205D02E
:1046C0001E2101EAD4222968114002E0696901F043
:1046D0008001A20001D5406800E00068394A10401E
:1046E000204201D001B101263046BDE8F081000032
:1046F00010600240106402402E2E5C4C69627261B0
:10470000726965735C53544D3332463478785F5325
:1047100074645065726970685F4472697665725C32
:104720007372635C73746D3332663478785F646D72
:10473000612E63002080001010400010082000103F
:10474000008800100044001000220010001100102A
:104750004000009000802010004010100020081041
:1047600000100410000001900080001800400014A8
:104770000020001200100011000040902080002056
:104780001040002004100020008800200044002079
:1047900000220020400000A00080202000401020C7
:1047A0000020082000100420000001A00080002844
:1047B000004000240020002200100021000040A042
:1047C0003C0F3C0F7D0F7D0F70B5044635481646F3
:1047D0000D4684423FD03348183084423BD03148A4
:1047E0003030844237D02F484830844233D02D486F
:1047F000603084422FD02B48783084422BD0294817
:104800009030844227D02748A830844223D02648BD
:10481000844220D02448183084421CD022483030B2
:10482000844218D020484830844214D01E4860305A
:10483000844210D01C48783084420CD01A48903002
:10484000844208D01848A830844204D040F2614124
:1048500016A007F0CFFD35F09E0000D125B940F23B
:10486000624112A007F0C6FD36B1012E04D040F21D
:1048700063410EA007F0BEFD280607D5606916B19A
:1048800040F0800001E020F080006061802D07D0C2
:10489000216805F01E000EB1014300E08143216054
:1048A00070BD000010600240106402402E2E5C4C6F
:1048B00069627261726965735C53544D3332463478
:1048C00078785F5374645065726970685F44726988
:1048D0007665725C7372635C73746D3332663478C0
:1048E000785F646D612E630070B505468D480C4697
:1048F00085423FD08B48183085423BD089483030C4
:10490000854237D087484830854233D0854860306B
:1049100085422FD08348783085422BD08148903013
:10492000854227D07F48A830854223D07E488542E3
:1049300020D07D48183085421CD07B4830308542DD
:1049400018D079484830854214D077486030854285
:1049500010D07548783085420CD07348903085422D
:1049600008D07148A830854204D04FF4A2716FA0DE
:1049700007F040FD2068C8B1B0F1007F16D0B0F15B
:10498000806F13D0B0F1C06F10D0B0F1006F0DD0B8
:10499000B0F1206F0AD0B0F1406F07D0B0F1606F76
:1049A00004D040F2451161A007F024FDE06840B159
:1049B000402806D0802804D04FF4A3715BA007F0F4
:1049C00019FD20694FF6FF71401E884204D340F262
:1049D000471156A007F00EFD6069B0F5007F05D0C5
:1049E00020B14FF4A47151A007F004FDA069B0F507
:1049F000806F05D020B140F249114CA007F0FAFCBD
:104A0000E06950B1B0F5006F07D0B0F5805F04D019
:104A10004FF4A57145A007F0EDFC206A50B1B0F548
:104A2000005F07D0B0F5804F04D040F24B113FA09B
:104A300007F0E0FC606A38B1B0F5807F04D04FF435
:104A4000A6713AA007F0D6FCA06A68B1B0F5803F25
:104A50000AD0B0F5003F07D0B0F5403F04D040F297
:104A60004D1132A007F0C6FCE06A30B1042804D032
:104A70004FF4A7712DA007F0BDFC206B50B10128A9
:104A800008D0022806D0032804D040F24F1127A0F6
:104A900007F0B0FC606B68B1B0F5000F0AD0B0F160
:104AA000807F07D0B0F1C07F04D04FF4A8711FA061
:104AB00007F0A0FCA06B68B1B0F5001F0AD0B0F5FC
:104AC000800F07D0B0F5C00F04D040F2511117A0ED
:104AD00007F090FC29682448E268014020681043F0
:104AE000D4E905231A431043E2691043226A1043B4
:104AF000626A1043A26A1043626B1043A26B1043B8
:104B0000084328606869D4E90B1220F007001143BC
:104B100001436961206968606068A860A068E86016
:104B200070BD000010600240106402402E2E5C4CEC
:104B300069627261726965735C53544D33324634F5
:104B400078785F5374645065726970685F44726905
:104B50007665725C7372635C73746D33326634783D
:104B6000785F646D612E63003F801CF07047000029
:104B70002DE9FC4FB1F10009DDE90B4532DD002BD9
:104B800024DBB6490193B64E51F8221006EB410ED4
:104B9000B44951F8326001EBC201002291F804A03F
:104BA000694211F0070104D014F8012BC1F120056E
:104BB000AA405B1ABAF1000F09D0BAF1010F14D064
:104BC000BAF1030F70D0BAF1020F6DD042E10021AB
:104BD0000A4605E040F8212000EB8103891C5A6059
:104BE0004945F7DB0020BDE8FC8F9EF800500EF130
:104BF000020C05F00F0A0027102B0EDB14F8015BE6
:104C0000C1F11806B540154314F8012BC1F1100687
:104C1000B2402A431031103B3DE0CD18002DD5DDC8
:104C2000002B05DD14F8016BC1F11807BE403243BB
:104C3000082B05DD14F8013BC1F110018B401A432C
:104C400029466E1E4FF00045354100232A400B27B0
:104C50000B3120E0CAF1200522FA05F53CF8156079
:104C6000350B491BAA40C6F303152DB102F00048CD
:104C7000520048EA0505491EC6F303262EB102F08C
:104C80000048520048EA0606491EB94273DBE0E8D4
:104C90000256A9F10209B9F1000F02DD0B29ABDBC5
:104CA000D8E7C81BD2E0FFE7002775460097102B16
:104CB00010DB14F8017BC1F1180C07FA0CF717434D
:104CC00014F8012BC1F1100C02FA0CF23A43103126
:104CD000103BB2E0CF18002F4DDD002B0FDD14F894
:104CE00001CBC1F118080CFA08FC4CEA0202082BAF
:104CF00005DD14F8013BC1F110018B401A43394620
:104D0000A7F1010C4FF0004747FA0CF73A400B2788
:104D100000230B31009790E02F7807F00F08C8F1BF
:104D2000200722FA07F705EB4707B7F802C05FEA4A
:104D30001C3708D0C91BBA40CCF30317CCF30325AA
:104D40000F2F07D037E0A1EB080102FA08F205EBBC
:104D50004C0572E0BAF1030F2ED115B14FF0010CE2
:104D600001E04FF0000CB4440CF1010B01EB03081F
:104D7000D8456FDB0AE06DE014F801CBC1F11808EB
:104D80000CFA08FC08314CEA0202083B5945F3DBF7
:104D9000002B09DA1944A1F101084FF0004C4CFA3C
:104DA00008FC00230CEA0202C6F1200C22FA0CFCDB
:104DB000891B6744B2402FB102F0004C52004CEA0C
:104DC0000707491E0F2D28D1BAF1030F26D106F18E
:104DD000010B01EB0308D8453CDB09E014F801CBDB
:104DE000C1F118080CFA08FC08314CEA0202083B31
:104DF0005945F3DB002B09DA1944A1F101084FF002
:104E0000004C4CFA08FC00230CEA0202C6F1200C0C
:104E100022FA0CFC891B6544B2402DB102F0004C13
:104E200052004CEA0505491EDDF800C0614511DB62
:104E3000E0E80275A9F102097546B9F1000F03DD3A
:104E40000B29FFF634AF67E70098081A0199184458
:104E5000081AC8E64FF0FF30C5E600007C93010851
:104E600058720108FC9301082DE9F84F8146DDE9ED
:104E70000A54002B02DC0020BDE8F88F4548464E5E
:104E800050F8220030440090444850F822E00022BC
:104E9000604210F0070404D015F8012BC4F1200083
:104EA00082401B1B00208346A1F1030A6EE0102BF9
:104EB0000EDB15F8011BC4F11806B140114315F8BB
:104EC000012BC4F11006B2400A43103B103459E0E4
:104ED000E1180029D0DD002B05DD15F8016BC4F1C8
:104EE0001807BE403243082B05DD15F8013BC4F11D
:104EF0001004A3401A430C464E1E4FF000413141AE
:104F000000230A404FF00A0B0A343BE0CEF12001A7
:104F1000009E22FA01F1715C0E09A41BB240C1F39C
:104F2000C00CBCF1000F05D002F00046520046EA6A
:104F30000C0C641EC1F3800727B102F00046374312
:104F40005200641EC1F340062EB102F00048520028
:104F500048EA0606641E11F0010105D002F000487F
:104F6000520048EA0101641E5C4585DBC9F800C0B7
:104F700009F1040C001D4CF8047B4CF8046B4CF850
:104F8000041BE146504501DA0A2CBFDA50458EDB9E
:104F900072E700004C950108FC9401085495010843
:104FA0002DE9FF4F87B08246894600200490504982
:104FB00003F0030001EB8018103951F82000059030
:104FC0001F20B0EBA30F01DD9E1000E01F26F01C98
:104FD0001F2800DA00E01F20002800DC002000214C
:104FE0000091D8F8041001410191D8F8081001414E
:104FF0000291D8F80C10014103915AF804BB2BF030
:105000000040042802DA5DF820005FE0102807DA8B
:1050100058F82000002E01DA714254E0304155E08A
:10502000402809DA334901EB8000059950F8400C1B
:10503000FBF7EEF9F11E3BE044040025B4F1006FEC
:1050400001DA24010425B4F1005F01DAA400AD1CEB
:10505000B4F1804F01DA64006D1C2748844202DA03
:10506000244FC03701E0234FD43721463868FBF77F
:10507000CFF9796808442146FBF7CAF9B9680844B2
:105080002146FBF7C5F9F96808442146FBF7C0F94A
:1050900039690844194951F82510FBF7B9F9C000DE
:1050A0000599FBF7B5F91549203951F82510711A02
:1050B00000290ADA49426FF0004323FA01F28242E2
:1050C00001DA184602E0884000E0084104990143F3
:1050D0000491BBF1000F00DA404249F8040B099833
:1050E000401E099089D104980BB0BDE8F08F0000F4
:1050F00030700108307101089A79825A38720108BB
:1051000010B50446C00D00D124B940F2231103A00C
:1051100007F070F91148046010BD00002E2E5C4CA1
:1051200069627261726965735C53544D33324634FF
:1051300078785F5374645065726970685F4472690F
:105140007665725C7372635C73746D333266347847
:10515000785F657874692E6300000000143C01409C
:105160002DE9FC5F00244C4F00944FF480680194BB
:105170004025C7F81080C7E902540E464FF0080BCF
:105180001021C7E900B1A146384602F029FD1020E0
:10519000FEF7E2FB002853D14048AA464D4600895D
:1051A000000438603720C7E9010AC7E90398384688
:1051B00002F016FD3720FEF7CFFB002840D1411E3C
:1051C00007F11400C0E9001B302181600221C0E911
:1051D00003150121416102F07FFB3320C7F808A0CD
:1051E000C7E90050C7E90358384602F0F9FC3320FC
:1051F000FEF7B2FB050023D1DFF8A490DFF8A08012
:105200004FF4001B6F46A9F14C0940F22A6AD9F805
:10521000000010EA0A0F0BD1584602F0DDFB00280F
:10522000F5D0D8F8000047F82400641C022CEED317
:10523000082002F0D1FB28B1082002F011FB042065
:10524000BDE8FC9F022002F0C7FB20B1022002F063
:1052500007FB0220F4E7202002F0BEFB20B1202053
:1052600002F0FEFA0620EBE74FF40074204602F04D
:10527000B3FB20B1204602F0F3FA0720E0E740F24A
:10528000FF5002F0EDFA009800BA7060019800BA81
:1052900030602846D4E70000080300208800002082
:1052A000802C01402DE9F0471E000D4604463BD0FE
:1052B000D107C6F11F074FF001004FF0000900FAB7
:1052C00007F0A0F10108CA4672D02068C11740FA61
:1052D00007F28A4201D088EA0100B0402060FBF763
:1052E0009AF840EA090954F8800F4042C11740FA81
:1052F00007F28A4201D088EA0100B0402060FBF743
:105300008AF840EA09092868C11740FA07F2803490
:105310008A4201D088EA0100B04001C50AF1020AC0
:10532000BAF1120FD1DB70E0D0073DD04FF42070FE
:10533000D4F880C107594FF46070D4F880800659C2
:105340004FF49060CCF1000C05594FF4B060C8F1F7
:10535000000803594FF4D0607F4202594FF4F060C7
:10536000764201594FF408606D4250F804904FF4B2
:105370002070C4F880C1C4F8808007514FF4607079
:105380005B4206514FF49060524205514FF4B060B9
:10539000494203514FF4D06002514FF4F060015183
:1053A000C9F10000C4F880080020BDE8F087FFE7DD
:1053B0002068C11740FA07F28A4201D088EA01004A
:1053C000B0402060FBF727F840EA090954F8800F45
:1053D000C11740FA07F28A4201D088EA0100B040C2
:1053E0002060FBF718F840EA09092868C11740FA5D
:1053F00007F280348A4201D088EA0100B04001C53A
:105400000AF1020ABAF1120FD2DB4846CDE70000DA
:105410002DE9F05F04464B4800260D46844221D01A
:10542000494884421ED0494884421BD0484884429F
:1054300018D04848844215D04748844212D0474883
:1054400084420FD0464884420CD04648844209D05A
:105450004548844206D04548844203D0CF2144A029
:1054600006F0C8FF28880004000C03D1D02140A01A
:1054700006F0C0FF287948B1012807D0022805D0DE
:10548000032803D0D1213AA006F0B4FFE87938B15F
:10549000012805D0022803D0D22135A006F0AAFFAA
:1054A0004FF0010A4FF0030B0AFA06F02968814613
:1054B0000140494541D1216870000BFA00F7B9431A
:1054C000804621602979206801FA08F101432160B2
:1054D0002879012801D0022826D1687948B101280D
:1054E00007D0022805D0032803D0E42120A006F02D
:1054F00081FFA068B843A0606879A16800FA08F04D
:105500000843A060A87928B1012803D0EB2118A096
:1055100006F070FF606820EA090060606168A879A1
:10552000B04080B201436160E068B843E060E87970
:10553000E16800FA08F00843E060761C102EB3D34F
:10554000BDE8F09F00000240000402400008024055
:10555000000C0240001002400014024000180240FB
:10556000001C0240002002400024024000280240AB
:105570002E2E5C4C69627261726965735C53544D86
:105580003332463478785F5374645065726970685A
:105590005F4472697665725C7372635C73746D33B9
:1055A00032663478785F6770696F2E6300000000A0
:1055B00070B506463E4815460C46864222D03D4808
:1055C00086421FD03C4886421CD03C48864219D0B7
:1055D0003B48864216D03B48864213D03A48864222
:1055E00010D03A4886420DD0394886420AD0394810
:1055F000864207D03848864204D040F2492137A07D
:1056000006F0F8FE14B3012C20D0022C1ED0032C7F
:105610001CD0042C1AD0052C18D0062C16D0072C20
:1056200014D0082C12D0092C10D00A2C0ED00B2C20
:105630000CD00C2C0AD00D2C08D00E2C06D00F2C20
:1056400004D040F24A2125A006F0D4FE05B3092D6E
:105650001ED0012D1CD0022D1AD0032D18D0042DE0
:1056600016D0052D14D0062D12D0072D10D0082DE0
:105670000ED00A2D0CD00B2D0AD00C2D08D00D2DDC
:1056800006D00F2D04D040F24B2114A006F0B2FE3C
:105690006007C10E8D40E00806EB8000026A0F2310
:1056A0008B409A430262016A2943016270BD000087
:1056B000000002400004024000080240000C0240CA
:1056C000001002400014024000180240001C02407A
:1056D0000020024000240240002802402E2E5C4C94
:1056E00069627261726965735C53544D333246343A
:1056F00078785F5374645065726970685F4472694A
:105700007665725C7372635C73746D333266347881
:10571000785F6770696F2E630000000070B5044603
:1057200017480D46844222D0164884421FD016489E
:1057300084421CD01548844219D01548844216D0A2
:105740001448844213D01448844210D01348844231
:105750000DD0134884420AD01248844207D0124820
:10576000844204D04FF4DA7110A006F043FE25B94C
:1057700040F2B5110DA006F03DFE658370BD00003E
:10578000000002400004024000080240000C0240F9
:10579000001002400014024000180240001C0240A9
:1057A0000020024000240240002802402E2E5C4CC3
:1057B00069627261726965735C53544D3332463469
:1057C00078785F5374645065726970685F44726979
:1057D0007665725C7372635C73746D3332663478B1
:1057E000785F6770696F2E630000000070B5044633
:1057F00017480D46844222D0164884421FD01648CE
:1058000084421CD01548844219D01548844216D0D1
:105810001448844213D01448844210D01348844260
:105820000DD0134884420AD01248844207D012484F
:10583000844204D040F29F1110A006F0DBFD25B990
:105840004FF4D0710DA006F0D5FD258370BD00008A
:10585000000002400004024000080240000C024028
:10586000001002400014024000180240001C0240D8
:105870000020024000240240002802402E2E5C4CF2
:1058800069627261726965735C53544D3332463498
:1058900078785F5374645065726970685F447269A8
:1058A0007665725C7372635C73746D3332663478E0
:1058B000785F6770696F2E630000000004A22E21DC
:1058C0000F4805F0EBFF012080F31088FEE7000091
:1058D0000D0A235B6572726F725F6D73675D3A20AC
:1058E00048617264204661756C74206578636570E8
:1058F00074696F6E206F6363757273210D0A000007
:10590000001001402DE9F04F97B0002798469346CC
:10591000894606463C46209D1AE0D8E9053018B174
:105920006869A04200DD0023D5E90301A14200DD42
:105930000020A9690090CDE901410BEB84024946A2
:10594000304600F0D5FB0743641C09F124094836B2
:105950002868A042E1DC12E0D5E90330A04200DD76
:105960000023A8690BEB8402CDE90040494630468C
:1059700000F0E2FA0743641C09F12409483668681C
:10598000A042E9DC009441E0D5E90320A04200DD1B
:10599000002203A9484606F075FCE00715904FF079
:1059A000000A04F001005646029003A80BEB062102
:1059B00050F83600019180004AEA000A41F82400BC
:1059C000FAF729FD40EA070803A800EBC60015997D
:1059D0004068800080EAE1710298084401994AEA2F
:1059E000000A01EB8401C1F88000FAF714FD0021E0
:1059F00049F82610761C40EA0807092ED5DB09F184
:105A00002409BAF1000F00D00094641CA868A042D9
:105A1000BADC0021202C09DA00200BEBC012401C5C
:105A200042F824101228F8DB641CF3E70FB10020C1
:105A300003E0202003E07F00401C002FFBDA401E23
:105A4000E861009817B0BDE8F08F000070B504461B
:105A500011480D4684420DD0104884420AD01048A7
:105A6000844207D0B4F1402F04D04FF411710DA03F
:105A700006F0C0FC55B1012D04D040F2452109A02B
:105A800006F0B8FCA08B40F4806002E0A08B20F40C
:105A90008060A08370BD000000380040003C0040E2
:105AA000003400402E2E5C4C69627261726965732D
:105AB0005C53544D3332463478785F537464506588
:105AC000726970685F4472697665725C7372635C58
:105AD00073746D3332663478785F7370692E630047
